:10000000FF3F065B4F666D7D077F6F75140A75189D
:100010000475300275FFDE75FFAD75B21475E10031
:1000200075E34075E26475A5FF75A6FF75A7F075C9
:10003000B000D2B4C2B5C222C223D224D2267832B2
:10004000115C11C811AE11F0116411AE1196751446
:100050000A117E11C811F0D514F780EC79057A01E8
:100060009000002220222420230122E53075F00296
:10007000A4F53054076003C223227530022220B059
:100080000720B10122D22322D222220518E51854DA
:10009000F76017C22222E82B940360012278327B9A
:1000A00032D224D226B2B5B2B4227518032211C4BA
:1000B00011C293F59011C21411C0600122A9182237
:1000C000F922E9229000002211DB11D993F5A01149
:1000D000D91411D7600922FA22EA22900000227A6C
:1000E0000AEA14600122E914600122B2B4B2B52216
:0D00F000AC307DC87FC6DFFEDDFADCF622F5
:00000001FF
