:10000000FF3F065B4F666D7D077F6F75140A75189D
:100010000475309675FFDE75FFAD75B21475E1009D
:1000200075E34075E26475A40074FF75A5FF75A6BD
:10003000FF75B50CC225C226F585441054DFF58541
:10004000C222C223118C11E611CC11FC119411852E
:1000500011CC75140A11AC11E611FCD514F780EC23
:10006000202208E58054047003D22522C2252220D4
:100070002308E58054087003D22622C22622E58593
:100080006430F58522E92A940E60F32279057A011D
:100090009000002220222620230122E53024324035
:1000A00005F530C22322753096C223221160202527
:1000B00006116F20260422D22222D22322C2220538
:1000C00018E51854F76001227518042211E211E0B6
:1000D00093F59011E01411DE600122A91822F92293
:1000E000E9229000002211E211F793F5A011F71414
:1000F00011F5600522FA22EA227A0A22AC307DFF4D
:090100007F01DFFEDDFADCF622CE
:00000001FF
