:10000000FF3F065B4F666D7D077F6F75140A75189D
:100010000475301475FFDE75FFAD75B21475E1001F
:1000200075E34075E26475A5FF75A6FF75A7F075C9
:10003000B000D2B4C2B5C222C223D224D2267832B2
:10004000116C11D611B611F2117411B675140A1192
:100050005E118811D611A611F2D514F380EAE5904D
:1000600055A0942F600122B2B5B2B42279057A016D
:100070009000002220222420230122E5302432F5A2
:1000800030C223227530142220B00D20B10720B2D7
:10009000F322D22422D22322D222220518E5185498
:1000A000F7600FC2222274242426600122D224D2B7
:1000B00026227518032211D211D093F59011D01475
:1000C00011CE600122A918C226B2B4B2B522F9221B
:1000D000E9229000002211E911E793F5A011E7143D
:1000E00011E5600922FA22EA22900000227A0AC26F
:0F00F0002422AC307DFF7F0ADFFEDDFADCF62232
:00000001FF
